{
  "abi": [
    {
      "inputs": [
        {
          "internalType": "address",
          "name": "_yakregistry",
          "type": "address"
        }
      ],
      "stateMutability": "nonpayable",
      "type": "constructor"
    },
    {
      "anonymous": false,
      "inputs": [
        {
          "indexed": true,
          "internalType": "address",
          "name": "previousOwner",
          "type": "address"
        },
        {
          "indexed": true,
          "internalType": "address",
          "name": "newOwner",
          "type": "address"
        }
      ],
      "name": "OwnershipTransferred",
      "type": "event"
    },
    {
      "inputs": [
        {
          "internalType": "uint256",
          "name": "_amountIn",
          "type": "uint256"
        },
        {
          "internalType": "address",
          "name": "_tokenIn",
          "type": "address"
        },
        {
          "internalType": "address",
          "name": "_tokenOut",
          "type": "address"
        },
        {
          "internalType": "bytes",
          "name": "_blacklisted",
          "type": "bytes"
        }
      ],
      "name": "findBestAdapterQuote",
      "outputs": [
        {
          "components": [
            {
              "internalType": "uint256",
              "name": "amountOut",
              "type": "uint256"
            },
            {
              "internalType": "bytes32",
              "name": "extra",
              "type": "bytes32"
            },
            {
              "internalType": "address",
              "name": "callTarget",
              "type": "address"
            },
            {
              "internalType": "address",
              "name": "fundTarget",
              "type": "address"
            },
            {
              "internalType": "bytes12",
              "name": "blacklistID",
              "type": "bytes12"
            }
          ],
          "internalType": "struct QueryResult",
          "name": "",
          "type": "tuple"
        }
      ],
      "stateMutability": "view",
      "type": "function"
    },
    {
      "inputs": [
        {
          "internalType": "uint256",
          "name": "_amountIn",
          "type": "uint256"
        },
        {
          "internalType": "address",
          "name": "_tokenIn",
          "type": "address"
        },
        {
          "internalType": "address",
          "name": "_tokenOut",
          "type": "address"
        },
        {
          "internalType": "uint256",
          "name": "_maxSteps",
          "type": "uint256"
        },
        {
          "internalType": "uint256",
          "name": "_gasPrice",
          "type": "uint256"
        }
      ],
      "name": "findBestPath",
      "outputs": [
        {
          "components": [
            {
              "internalType": "uint256[]",
              "name": "amounts",
              "type": "uint256[]"
            },
            {
              "internalType": "address[]",
              "name": "callTargets",
              "type": "address[]"
            },
            {
              "internalType": "address[]",
              "name": "fundTargets",
              "type": "address[]"
            },
            {
              "internalType": "address[]",
              "name": "path",
              "type": "address[]"
            },
            {
              "internalType": "bytes32[]",
              "name": "extra",
              "type": "bytes32[]"
            }
          ],
          "internalType": "struct FormattedOffer",
          "name": "",
          "type": "tuple"
        }
      ],
      "stateMutability": "view",
      "type": "function"
    },
    {
      "inputs": [],
      "name": "owner",
      "outputs": [
        {
          "internalType": "address",
          "name": "",
          "type": "address"
        }
      ],
      "stateMutability": "view",
      "type": "function"
    },
    {
      "inputs": [],
      "name": "renounceOwnership",
      "outputs": [],
      "stateMutability": "nonpayable",
      "type": "function"
    },
    {
      "inputs": [
        {
          "internalType": "address",
          "name": "newOwner",
          "type": "address"
        }
      ],
      "name": "transferOwnership",
      "outputs": [],
      "stateMutability": "nonpayable",
      "type": "function"
    }
  ],
  "bytecode": {
    "object": "0x6080604052600180546001600160a01b03191673b31f66aa3c1e785363f0875a1b74e27b85fd66c717905534801561003657600080fd5b506040516119e83803806119e8833981016040819052610055916100d3565b61005e33610083565b600280546001600160a01b0319166001600160a01b0392909216919091179055610103565b600080546001600160a01b038381166001600160a01b0319831681178455604051919092169283917f8be0079c531659141344cd1fd0a4f28419497f9722a3daafe3b4186f6b6457e09190a35050565b6000602082840312156100e557600080fd5b81516001600160a01b03811681146100fc57600080fd5b9392505050565b6118d6806101126000396000f3fe608060405234801561001057600080fd5b50600436106100575760003560e01c806342408f211461005c578063662aa363146100d0578063715018a6146100f05780638da5cb5b146100fa578063f2fde38b14610115575b600080fd5b61006f61006a366004611314565b610128565b6040516100c7919081518152602080830151908201526040808301516001600160a01b0390811691830191909152606080840151909116908201526080918201516001600160a01b0319169181019190915260a00190565b60405180910390f35b6100e36100de3660046113d8565b610300565b6040516100c7919061149e565b6100f8610422565b005b6000546040516001600160a01b0390911681526020016100c7565b6100f8610123366004611562565b610488565b6040805160a08101825260008082526020820181905291810182905260608101829052608081019190915260006101dc86868686600260009054906101000a90046001600160a01b03166001600160a01b031663af520da16040518163ffffffff1660e01b8152600401600060405180830381865afa1580156101af573d6000803e3d6000fd5b505050506040513d6000823e601f3d908101601f191682016040526101d79190810190611586565b610553565b90506000600260009054906101000a90046001600160a01b03166001600160a01b031663e6392ed36040518163ffffffff1660e01b8152600401602060405180830381865afa158015610233573d6000803e3d6000fd5b505050506040513d601f19601f82011682018060405250810190610257919061162c565b604051634ed43fad60e01b81526001600160a01b03888116600483015287811660248301529190911690634ed43fad90604401600060405180830381865afa1580156102a7573d6000803e3d6000fd5b505050506040513d6000823e601f3d908101601f191682016040526102cf9190810190611586565b905060006102e08888888886610553565b83518151919250106102f257826102f4565b805b98975050505050505050565b6103326040518060a0016040528060608152602001606081526020016060815260200160608152602001606081525090565b6000831180156103425750600583105b6103935760405162461bcd60e51b815260206004820152601c60248201527f59616b526f757465723a20496e76616c6964206d61782d73746570730000000060448201526064015b60405180910390fd5b600061039f8787610673565b905060008084116103b15760006103bb565b6103bb84876106a6565b90506103e8604051806040016040528060098152602001686761732d707269636560b81b81525082610731565b6103f688888888868661077a565b602081015151909250156104165761040d82610b7a565b92505050610419565b50505b95945050505050565b6000546001600160a01b0316331461047c5760405162461bcd60e51b815260206004820181905260248201527f4f776e61626c653a2063616c6c6572206973206e6f7420746865206f776e6572604482015260640161038a565b6104866000610c14565b565b6000546001600160a01b031633146104e25760405162461bcd60e51b815260206004820181905260248201527f4f776e61626c653a2063616c6c6572206973206e6f7420746865206f776e6572604482015260640161038a565b6001600160a01b0381166105475760405162461bcd60e51b815260206004820152602660248201527f4f776e61626c653a206e6577206f776e657220697320746865207a65726f206160448201526564647265737360d01b606482015260840161038a565b61055081610c14565b50565b6040805160a0810182526000808252602082018190529181018290526060810182905260808101829052905b82518160ff161015610669576000838260ff16815181106105a2576105a2611649565b60209081029190910101516040516377ccc49d60e11b8152600481018a90526001600160a01b038981166024830152888116604483015291925060009183169063ef99893a9060640160a060405180830381865afa158015610608573d6000803e3d6000fd5b505050506040513d601f19601f8201168201806040525081019061062c919061165f565b8451815191925010801561064b5750610649868260800151610c64565b155b15610654578093505b505080806106619061170a565b91505061057f565b5095945050505050565b61067b61127b565b61068483610ccd565b608082015261069b6001600160a01b038316610ccd565b60c082015292915050565b60015460009081906106ce90670de0b6b3a7640000906001600160a01b031685600285610300565b90508060600151516000146107295780518051633b9aca009186916106f59060019061172a565b8151811061070557610705611649565b60200260200101516107179190611741565b6107219190611760565b91505061072b565b505b92915050565b61077682826040516024016107479291906117de565b60408051601f198184030181529190526020810180516001600160e01b03166309710a9d60e41b179052610cf7565b5050565b61078261127b565b60025460408051632f4f605b60e11b815290516000926001600160a01b031691635e9ec0b691600480830192869291908290030181865afa1580156107cb573d6000803e3d6000fd5b505050506040513d6000823e601f3d908101601f191682016040526107f39190810190611586565b9050600061080085610d18565b90506000806108158b8b8b8a60600151610128565b8051909150156108b15761082c8160400151610d76565b600081604001516001600160a01b03166369cff80d6040518163ffffffff1660e01b8152600401602060405180830381865afa158015610870573d6000803e3d6000fd5b505050506040513d601f19601f820116820180604052508101906108949190611800565b905061089f81610dbe565b6108ab8483838d610e03565b50805191505b6001881180156108dc57506108c760028961172a565b60208860200151516108d99190611760565b11155b15610b6b5760005b8451811015610b69578481815181106108ff576108ff611649565b60200260200101516001600160a01b03168b6001600160a01b0316141561092557610b57565b60006109508d8d88858151811061093e5761093e611649565b60200260200101518c60600151610128565b805190915061095f5750610b57565b600061096a8a610d18565b9050600082604001516001600160a01b03166369cff80d6040518163ffffffff1660e01b8152600401602060405180830381865afa1580156109b0573d6000803e3d6000fd5b505050506040513d601f19601f820116820180604052508101906109d49190611800565b9050610a0683828a87815181106109ed576109ed611649565b602002602001015185610e03909392919063ffffffff16565b610a318360000151898681518110610a2057610a20611649565b60200260200101518f8f868f61077a565b91506000610a3e83610f8f565b90506000610a4b84610fa2565b9050816001600160a01b03168f6001600160a01b0316148015610a6d57508781115b15610b5157610aaf6040518060400160405280600e81526020016d626573742d6f666665722d67617360901b8152508a60000151610aaa8c610fa2565b610fc0565b610ae36040518060400160405280600d81526020016c6e65772d6f666665722d67617360981b815250856000015183610fc0565b885184511115610b4a5788518451600091633b9aca0091610b04919061172a565b610b0e908f611741565b610b189190611760565b90506000610b268a8461172a565b9050610b338e828461100c565b80821115610b475750505050505050610b57565b50505b8097508398505b50505050505b80610b6181611819565b9150506108e4565b505b50909998505050505050505050565b610bac6040518060a0016040528060608152602001606081526020016060815260200160608152602001606081525090565b6040518060a00160405280610bc4846080015161105a565b8152602001610bd6846020015161111a565b8152602001610be8846040015161111a565b8152602001610bfa8460c0015161111a565b8152602001610c0c8460a001516111d1565b905292915050565b600080546001600160a01b038381166001600160a01b0319831681178455604051919092169283917f8be0079c531659141344cd1fd0a4f28419497f9722a3daafe3b4186f6b6457e09190a35050565b6000805b60208451610c769190611760565b81101561072957610c9d610c8b826020611741565b610c96906020611834565b85906110e0565b6001600160a01b031984811691161415610cbb57600191505061072b565b80610cc581611819565b915050610c68565b60408051602080825281830190925260609160208201818036833750505060208101929092525090565b80516a636f6e736f6c652e6c6f67602083016000808483855afa5050505050565b610d2061127b565b6040518060e0016040528083600001518152602001836020015181526020018360400151815260200183606001518152602001836080015181526020018360a0015181526020018360c001518152509050919050565b6040516001600160a01b03821660248201526105509060440160408051601f198184030181529190526020810180516001600160e01b031663161765e160e11b179052610cf7565b61055081604051602401610dd491815260200190565b60408051601f198184030181529190526020810180516001600160e01b031663f5b1bba960e01b179052610cf7565b8360600151610e1f84608001516001600160a01b031916610ccd565b604051602001610e3092919061184c565b60405160208183030381529060405284606001819052508360200151610e6284604001516001600160a01b0316610ccd565b604051602001610e7392919061184c565b60405160208183030381529060405284602001819052508360400151610ea584606001516001600160a01b0316610ccd565b604051602001610eb692919061184c565b60408051601f1981840301815291815285015260808401518351610ed990610ccd565b604051602001610eea92919061184c565b60408051601f19818403018152919052608085015260a08401516020840151610f1290610ccd565b604051602001610f2392919061184c565b60408051601f1981840301815291905260a085015260c0840151610f4f6001600160a01b038316610ccd565b604051602001610f6092919061184c565b60408051601f1981840301815291905260c0850152835182908590610f86908390611834565b90525050505050565b60c0810151805160009161072b916110e0565b600061072b8260c001515183608001516110e090919063ffffffff16565b611007838383604051602401610fd89392919061187b565b60408051601f198184030181529190526020810180516001600160e01b031663969cdd0360e01b179052610cf7565b505050565b6040516024810184905260448101839052606481018290526110079060840160408051601f198184030181529190526020810180516001600160e01b03166339e0829d60e21b179052610cf7565b60606020825161106a9190611760565b67ffffffffffffffff811115611082576110826112cd565b6040519080825280602002602001820160405280156110ab578160200160208202803683370190505b50905060005b602083516110bf9190611760565b811015611114576110e5836110d5836020611741565b6110e0906020611834565b015190565b8282815181106110f7576110f7611649565b60209081029190910101528061110c81611819565b9150506110b1565b50919050565b60606020825161112a9190611760565b67ffffffffffffffff811115611142576111426112cd565b60405190808252806020026020018201604052801561116b578160200160208202803683370190505b50905060005b6020835161117f9190611760565b81101561111457611195836110d5836020611741565b8282815181106111a7576111a7611649565b6001600160a01b0390921660209283029190910190910152806111c981611819565b915050611171565b6060602082516111e19190611760565b67ffffffffffffffff8111156111f9576111f96112cd565b604051908082528060200260200182016040528015611222578160200160208202803683370190505b50905060005b602083516112369190611760565b8110156111145761124c836110d5836020611741565b82828151811061125e5761125e611649565b60209081029190910101528061127381611819565b915050611228565b6040518060e00160405280600081526020016060815260200160608152602001606081526020016060815260200160608152602001606081525090565b6001600160a01b038116811461055057600080fd5b634e487b7160e01b600052604160045260246000fd5b604051601f8201601f1916810167ffffffffffffffff8111828210171561130c5761130c6112cd565b604052919050565b6000806000806080858703121561132a57600080fd5b8435935060208086013561133d816112b8565b9350604086013561134d816112b8565b9250606086013567ffffffffffffffff8082111561136a57600080fd5b818801915088601f83011261137e57600080fd5b813581811115611390576113906112cd565b6113a2601f8201601f191685016112e3565b915080825289848285010111156113b857600080fd5b808484018584013760008482840101525080935050505092959194509250565b600080600080600060a086880312156113f057600080fd5b853594506020860135611402816112b8565b93506040860135611412816112b8565b94979396509394606081013594506080013592915050565b600081518084526020808501945080840160005b838110156114635781516001600160a01b03168752958201959082019060010161143e565b509495945050505050565b600081518084526020808501945080840160005b8381101561146357815187529582019590820190600101611482565b6020808252825160a083830152805160c0840181905260009291820190839060e08601905b808310156114e357835182529284019260019290920191908401906114c3565b50838701519350601f19925082868203016040870152611503818561142a565b93505050604085015181858403016060860152611520838261142a565b92505060608501518185840301608086015261153c838261142a565b9250506080850151818584030160a0860152611558838261146e565b9695505050505050565b60006020828403121561157457600080fd5b813561157f816112b8565b9392505050565b6000602080838503121561159957600080fd5b825167ffffffffffffffff808211156115b157600080fd5b818501915085601f8301126115c557600080fd5b8151818111156115d7576115d76112cd565b8060051b91506115e88483016112e3565b818152918301840191848101908884111561160257600080fd5b938501935b838510156102f4578451925061161c836112b8565b8282529385019390850190611607565b60006020828403121561163e57600080fd5b815161157f816112b8565b634e487b7160e01b600052603260045260246000fd5b600060a0828403121561167157600080fd5b60405160a0810181811067ffffffffffffffff82111715611694576116946112cd565b8060405250825181526020830151602082015260408301516116b5816112b8565b604082015260608301516116c8816112b8565b606082015260808301516001600160a01b0319811681146116e857600080fd5b60808201529392505050565b634e487b7160e01b600052601160045260246000fd5b600060ff821660ff811415611721576117216116f4565b60010192915050565b60008282101561173c5761173c6116f4565b500390565b600081600019048311821515161561175b5761175b6116f4565b500290565b60008261177d57634e487b7160e01b600052601260045260246000fd5b500490565b60005b8381101561179d578181015183820152602001611785565b838111156117ac576000848401525b50505050565b600081518084526117ca816020860160208601611782565b601f01601f19169290920160200192915050565b6040815260006117f160408301856117b2565b90508260208301529392505050565b60006020828403121561181257600080fd5b5051919050565b600060001982141561182d5761182d6116f4565b5060010190565b60008219821115611847576118476116f4565b500190565b6000835161185e818460208801611782565b835190830190611872818360208801611782565b01949350505050565b60608152600061188e60608301866117b2565b6020830194909452506040015291905056fea26469706673582212204d21e960bcb87ab8177826b717e42d9abdfcf7d08ec5be5cbec364d84dd9820764736f6c634300080c0033",
    "linkReferences": {}
  }
}