{
  "abi": [
    {
      "inputs": [
        {
          "internalType": "address",
          "name": "_sprouter",
          "type": "address"
        },
        {
          "internalType": "address[]",
          "name": "_sources",
          "type": "address[]"
        },
        {
          "internalType": "address[]",
          "name": "_hoppers",
          "type": "address[]"
        }
      ],
      "stateMutability": "nonpayable",
      "type": "constructor"
    },
    {
      "anonymous": false,
      "inputs": [
        {
          "indexed": true,
          "internalType": "address",
          "name": "previousOwner",
          "type": "address"
        },
        {
          "indexed": true,
          "internalType": "address",
          "name": "newOwner",
          "type": "address"
        }
      ],
      "name": "OwnershipTransferred",
      "type": "event"
    },
    {
      "inputs": [],
      "name": "getHoppers",
      "outputs": [
        {
          "internalType": "address[]",
          "name": "",
          "type": "address[]"
        }
      ],
      "stateMutability": "view",
      "type": "function"
    },
    {
      "inputs": [],
      "name": "getSPRouter",
      "outputs": [
        {
          "internalType": "address",
          "name": "",
          "type": "address"
        }
      ],
      "stateMutability": "view",
      "type": "function"
    },
    {
      "inputs": [],
      "name": "getSources",
      "outputs": [
        {
          "internalType": "address[]",
          "name": "",
          "type": "address[]"
        }
      ],
      "stateMutability": "view",
      "type": "function"
    },
    {
      "inputs": [],
      "name": "owner",
      "outputs": [
        {
          "internalType": "address",
          "name": "",
          "type": "address"
        }
      ],
      "stateMutability": "view",
      "type": "function"
    },
    {
      "inputs": [],
      "name": "renounceOwnership",
      "outputs": [],
      "stateMutability": "nonpayable",
      "type": "function"
    },
    {
      "inputs": [
        {
          "internalType": "address[]",
          "name": "_hoppers",
          "type": "address[]"
        }
      ],
      "name": "setHoppers",
      "outputs": [],
      "stateMutability": "nonpayable",
      "type": "function"
    },
    {
      "inputs": [
        {
          "internalType": "address",
          "name": "_sprouter",
          "type": "address"
        }
      ],
      "name": "setSPRouter",
      "outputs": [],
      "stateMutability": "nonpayable",
      "type": "function"
    },
    {
      "inputs": [
        {
          "internalType": "address[]",
          "name": "_sources",
          "type": "address[]"
        }
      ],
      "name": "setSources",
      "outputs": [],
      "stateMutability": "nonpayable",
      "type": "function"
    },
    {
      "inputs": [
        {
          "internalType": "address",
          "name": "newOwner",
          "type": "address"
        }
      ],
      "name": "transferOwnership",
      "outputs": [],
      "stateMutability": "nonpayable",
      "type": "function"
    }
  ],
  "bytecode": {
    "object": "0x608060405234801561001057600080fd5b5060405161086b38038061086b83398101604081905261002f91610220565b61003833610083565b600180546001600160a01b0319166001600160a01b03851617905581516100669060029060208501906100d3565b50805161007a9060039060208401906100d3565b50505050610294565b600080546001600160a01b038381166001600160a01b0319831681178455604051919092169283917f8be0079c531659141344cd1fd0a4f28419497f9722a3daafe3b4186f6b6457e09190a35050565b828054828255906000526020600020908101928215610128579160200282015b8281111561012857825182546001600160a01b0319166001600160a01b039091161782556020909201916001909101906100f3565b50610134929150610138565b5090565b5b808211156101345760008155600101610139565b80516001600160a01b038116811461016457600080fd5b919050565b634e487b7160e01b600052604160045260246000fd5b600082601f83011261019057600080fd5b815160206001600160401b03808311156101ac576101ac610169565b8260051b604051601f19603f830116810181811084821117156101d1576101d1610169565b6040529384528581018301938381019250878511156101ef57600080fd5b83870191505b84821015610215576102068261014d565b835291830191908301906101f5565b979650505050505050565b60008060006060848603121561023557600080fd5b61023e8461014d565b60208501519093506001600160401b038082111561025b57600080fd5b6102678783880161017f565b9350604086015191508082111561027d57600080fd5b5061028a8682870161017f565b9150509250925092565b6105c8806102a36000396000f3fe608060405234801561001057600080fd5b50600436106100935760003560e01c8063a39512e311610066578063a39512e3146100f8578063af520da11461010b578063cab8b79514610113578063e6392ed314610126578063f2fde38b1461013757600080fd5b80632000b471146100985780635e9ec0b6146100ad578063715018a6146100cb5780638da5cb5b146100d3575b600080fd5b6100ab6100a636600461046b565b61014a565b005b6100b561018e565b6040516100c291906104e0565b60405180910390f35b6100ab6101f0565b6000546001600160a01b03165b6040516001600160a01b0390911681526020016100c2565b6100ab61010636600461052d565b610226565b6100b5610272565b6100ab61012136600461046b565b6102d2565b6001546001600160a01b03166100e0565b6100ab61014536600461052d565b610308565b6000546001600160a01b0316331461017d5760405162461bcd60e51b81526004016101749061055d565b60405180910390fd5b610189600383836103f3565b505050565b606060038054806020026020016040519081016040528092919081815260200182805480156101e657602002820191906000526020600020905b81546001600160a01b031681526001909101906020018083116101c8575b5050505050905090565b6000546001600160a01b0316331461021a5760405162461bcd60e51b81526004016101749061055d565b61022460006103a3565b565b6000546001600160a01b031633146102505760405162461bcd60e51b81526004016101749061055d565b600180546001600160a01b0319166001600160a01b0392909216919091179055565b606060028054806020026020016040519081016040528092919081815260200182805480156101e6576020028201919060005260206000209081546001600160a01b031681526001909101906020018083116101c8575050505050905090565b6000546001600160a01b031633146102fc5760405162461bcd60e51b81526004016101749061055d565b610189600283836103f3565b6000546001600160a01b031633146103325760405162461bcd60e51b81526004016101749061055d565b6001600160a01b0381166103975760405162461bcd60e51b815260206004820152602660248201527f4f776e61626c653a206e6577206f776e657220697320746865207a65726f206160448201526564647265737360d01b6064820152608401610174565b6103a0816103a3565b50565b600080546001600160a01b038381166001600160a01b0319831681178455604051919092169283917f8be0079c531659141344cd1fd0a4f28419497f9722a3daafe3b4186f6b6457e09190a35050565b828054828255906000526020600020908101928215610446579160200282015b828111156104465781546001600160a01b0319166001600160a01b03843516178255602090920191600190910190610413565b50610452929150610456565b5090565b5b808211156104525760008155600101610457565b6000806020838503121561047e57600080fd5b823567ffffffffffffffff8082111561049657600080fd5b818501915085601f8301126104aa57600080fd5b8135818111156104b957600080fd5b8660208260051b85010111156104ce57600080fd5b60209290920196919550909350505050565b6020808252825182820181905260009190848201906040850190845b818110156105215783516001600160a01b0316835292840192918401916001016104fc565b50909695505050505050565b60006020828403121561053f57600080fd5b81356001600160a01b038116811461055657600080fd5b9392505050565b6020808252818101527f4f776e61626c653a2063616c6c6572206973206e6f7420746865206f776e657260408201526060019056fea2646970667358221220537df2a4f3fde8baac21bb84538f5e3a9828890acbe51028a44cedffc4d2d9f364736f6c634300080c0033",
    "linkReferences": {}
  }
}