{
  "abi": [
    {
      "inputs": [
        {
          "internalType": "address",
          "name": "_tknFrom",
          "type": "address"
        },
        {
          "internalType": "address",
          "name": "_tknTo",
          "type": "address"
        },
        {
          "internalType": "uint256",
          "name": "_multiplier",
          "type": "uint256"
        },
        {
          "internalType": "bytes12",
          "name": "_blacklistID",
          "type": "bytes12"
        }
      ],
      "stateMutability": "nonpayable",
      "type": "constructor"
    },
    {
      "anonymous": false,
      "inputs": [
        {
          "indexed": true,
          "internalType": "address",
          "name": "previousOwner",
          "type": "address"
        },
        {
          "indexed": true,
          "internalType": "address",
          "name": "newOwner",
          "type": "address"
        }
      ],
      "name": "OwnershipTransferred",
      "type": "event"
    },
    {
      "anonymous": false,
      "inputs": [
        {
          "indexed": true,
          "internalType": "address",
          "name": "_asset",
          "type": "address"
        },
        {
          "indexed": false,
          "internalType": "uint256",
          "name": "amount",
          "type": "uint256"
        }
      ],
      "name": "Recovered",
      "type": "event"
    },
    {
      "anonymous": false,
      "inputs": [
        {
          "indexed": true,
          "internalType": "address",
          "name": "adapter",
          "type": "address"
        },
        {
          "indexed": false,
          "internalType": "uint256",
          "name": "newEstimate",
          "type": "uint256"
        }
      ],
      "name": "UpdatedGasEstimate",
      "type": "event"
    },
    {
      "anonymous": false,
      "inputs": [
        {
          "indexed": false,
          "internalType": "string",
          "name": "newName",
          "type": "string"
        }
      ],
      "name": "UpdatedName",
      "type": "event"
    },
    {
      "anonymous": false,
      "inputs": [
        {
          "indexed": true,
          "internalType": "address",
          "name": "tokenFrom",
          "type": "address"
        },
        {
          "indexed": true,
          "internalType": "address",
          "name": "tokenTo",
          "type": "address"
        },
        {
          "indexed": false,
          "internalType": "uint256",
          "name": "amountIn",
          "type": "uint256"
        },
        {
          "indexed": false,
          "internalType": "uint256",
          "name": "amountOut",
          "type": "uint256"
        }
      ],
      "name": "YakAdapterSwap",
      "type": "event"
    },
    {
      "inputs": [],
      "name": "blacklistID",
      "outputs": [
        {
          "internalType": "bytes12",
          "name": "",
          "type": "bytes12"
        }
      ],
      "stateMutability": "view",
      "type": "function"
    },
    {
      "inputs": [],
      "name": "name",
      "outputs": [
        {
          "internalType": "string",
          "name": "",
          "type": "string"
        }
      ],
      "stateMutability": "view",
      "type": "function"
    },
    {
      "inputs": [],
      "name": "owner",
      "outputs": [
        {
          "internalType": "address",
          "name": "",
          "type": "address"
        }
      ],
      "stateMutability": "view",
      "type": "function"
    },
    {
      "inputs": [
        {
          "internalType": "uint256",
          "name": "_amountIn",
          "type": "uint256"
        },
        {
          "internalType": "address",
          "name": "_tokenIn",
          "type": "address"
        },
        {
          "internalType": "address",
          "name": "_tokenOut",
          "type": "address"
        }
      ],
      "name": "query",
      "outputs": [
        {
          "components": [
            {
              "internalType": "uint256",
              "name": "amountOut",
              "type": "uint256"
            },
            {
              "internalType": "bytes32",
              "name": "extra",
              "type": "bytes32"
            },
            {
              "internalType": "address",
              "name": "callTarget",
              "type": "address"
            },
            {
              "internalType": "address",
              "name": "fundTarget",
              "type": "address"
            },
            {
              "internalType": "bytes12",
              "name": "blacklistID",
              "type": "bytes12"
            }
          ],
          "internalType": "struct QueryResult",
          "name": "",
          "type": "tuple"
        }
      ],
      "stateMutability": "view",
      "type": "function"
    },
    {
      "inputs": [
        {
          "internalType": "address",
          "name": "_tokenAddress",
          "type": "address"
        },
        {
          "internalType": "uint256",
          "name": "_tokenAmount",
          "type": "uint256"
        }
      ],
      "name": "recoverERC20",
      "outputs": [],
      "stateMutability": "nonpayable",
      "type": "function"
    },
    {
      "inputs": [
        {
          "internalType": "uint256",
          "name": "_amount",
          "type": "uint256"
        }
      ],
      "name": "recoverNative",
      "outputs": [],
      "stateMutability": "nonpayable",
      "type": "function"
    },
    {
      "inputs": [],
      "name": "renounceOwnership",
      "outputs": [],
      "stateMutability": "nonpayable",
      "type": "function"
    },
    {
      "inputs": [
        {
          "internalType": "bytes12",
          "name": "_newID",
          "type": "bytes12"
        }
      ],
      "name": "setBlacklistID",
      "outputs": [],
      "stateMutability": "nonpayable",
      "type": "function"
    },
    {
      "inputs": [
        {
          "internalType": "string",
          "name": "_name",
          "type": "string"
        }
      ],
      "name": "setName",
      "outputs": [],
      "stateMutability": "nonpayable",
      "type": "function"
    },
    {
      "inputs": [
        {
          "internalType": "uint256",
          "name": "_estimate",
          "type": "uint256"
        }
      ],
      "name": "setSwapGasEstimate",
      "outputs": [],
      "stateMutability": "nonpayable",
      "type": "function"
    },
    {
      "inputs": [
        {
          "internalType": "uint256",
          "name": "_amountIn",
          "type": "uint256"
        },
        {
          "internalType": "uint256",
          "name": "_amountOut",
          "type": "uint256"
        },
        {
          "internalType": "address",
          "name": "_fromToken",
          "type": "address"
        },
        {
          "internalType": "address",
          "name": "_toToken",
          "type": "address"
        },
        {
          "internalType": "address",
          "name": "_to",
          "type": "address"
        },
        {
          "internalType": "bytes32",
          "name": "_extra",
          "type": "bytes32"
        }
      ],
      "name": "swap",
      "outputs": [],
      "stateMutability": "nonpayable",
      "type": "function"
    },
    {
      "inputs": [],
      "name": "swapGasEstimate",
      "outputs": [
        {
          "internalType": "uint256",
          "name": "",
          "type": "uint256"
        }
      ],
      "stateMutability": "view",
      "type": "function"
    },
    {
      "inputs": [
        {
          "internalType": "address",
          "name": "newOwner",
          "type": "address"
        }
      ],
      "name": "transferOwnership",
      "outputs": [],
      "stateMutability": "nonpayable",
      "type": "function"
    },
    {
      "stateMutability": "payable",
      "type": "receive"
    }
  ],
  "bytecode": {
    "object": "0x6101006040523480156200001257600080fd5b50604051620013903803806200139083398101604081905262000035916200030d565b6444756d6d7960d81b6040518060400160405280600581526020016444756d6d7960d81b81525060006200007862000072620000cd60201b60201c565b620000d1565b620000838162000121565b6200008e82620001ad565b5050608052600380546001600160601b03191660a092831c17905560e0919091526001600160a01b0392831690521660c052620186a060015562000405565b3390565b600080546001600160a01b038381166001600160a01b0319831681178455604051919092169283917f8be0079c531659141344cd1fd0a4f28419497f9722a3daafe3b4186f6b6457e09190a35050565b6000546001600160a01b03163314620001705760405162461bcd60e51b815260206004820181905260248201526000805160206200137083398151915260448201526064015b60405180910390fd5b600181905560405181815230907ff43f23b7a28e6f8ce6843a21bd7b48bce778aa913b8c8cf459edf7d770e8d38a9060200160405180910390a250565b6000546001600160a01b03163314620001f85760405162461bcd60e51b8152602060048201819052602482015260008051602062001370833981519152604482015260640162000167565b80516200020d9060029060208401906200024a565b507f2319d1693ced5c256216527c7586842758cea48e90a4d4f69304f76883413798816040516200023f919062000370565b60405180910390a150565b8280546200025890620003c8565b90600052602060002090601f0160209004810192826200027c5760008555620002c7565b82601f106200029757805160ff1916838001178555620002c7565b82800160010185558215620002c7579182015b82811115620002c7578251825591602001919060010190620002aa565b50620002d5929150620002d9565b5090565b5b80821115620002d55760008155600101620002da565b80516001600160a01b03811681146200030857600080fd5b919050565b600080600080608085870312156200032457600080fd5b6200032f85620002f0565b93506200033f60208601620002f0565b6040860151606087015191945092506001600160a01b0319811681146200036557600080fd5b939692955090935050565b600060208083528351808285015260005b818110156200039f5785810183015185820160400152820162000381565b81811115620003b2576000604083870101525b50601f01601f1916929092016040019392505050565b600181811c90821680620003dd57607f821691505b60208210811415620003ff57634e487b7160e01b600052602260045260246000fd5b50919050565b60805160a05160c05160e051610f346200043c60003960006108de015260006108970152600061085b015260005050610f346000f3fe6080604052600436106100c65760003560e01c8063a3a2c8191161007f578063c47f002711610059578063c47f00271461022f578063ef99893a1461024f578063f2fde38b146102c7578063f8630156146102e757600080fd5b8063a3a2c819146101a0578063aede3693146101dc578063c01b52d7146101fc57600080fd5b806306fdde03146100d257806369cff80d146100fd578063715018a61461012157806384a33e63146101385780638980f11f146101585780638da5cb5b1461017857600080fd5b366100cd57005b600080fd5b3480156100de57600080fd5b506100e7610307565b6040516100f49190610bea565b60405180910390f35b34801561010957600080fd5b5061011360015481565b6040519081526020016100f4565b34801561012d57600080fd5b50610136610395565b005b34801561014457600080fd5b50610136610153366004610c1d565b6103d4565b34801561016457600080fd5b50610136610173366004610c52565b61043c565b34801561018457600080fd5b506000546040516001600160a01b0390911681526020016100f4565b3480156101ac57600080fd5b506101366101bb366004610c7c565b600380546bffffffffffffffffffffffff191660a09290921c919091179055565b3480156101e857600080fd5b506101366101f7366004610c1d565b610506565b34801561020857600080fd5b506003546102169060a01b81565b6040516001600160a01b031990911681526020016100f4565b34801561023b57600080fd5b5061013661024a366004610cbc565b6105d6565b34801561025b57600080fd5b5061026f61026a366004610d6d565b61064e565b6040516100f4919081518152602080830151908201526040808301516001600160a01b0390811691830191909152606080840151909116908201526080918201516001600160a01b0319169181019190915260a00190565b3480156102d357600080fd5b506101366102e2366004610da9565b61068e565b3480156102f357600080fd5b50610136610302366004610dc4565b610729565b6002805461031490610e23565b80601f016020809104026020016040519081016040528092919081815260200182805461034090610e23565b801561038d5780601f106103625761010080835404028352916020019161038d565b820191906000526020600020905b81548152906001019060200180831161037057829003601f168201915b505050505081565b6000546001600160a01b031633146103c85760405162461bcd60e51b81526004016103bf90610e5e565b60405180910390fd5b6103d26000610787565b565b6000546001600160a01b031633146103fe5760405162461bcd60e51b81526004016103bf90610e5e565b600181905560405181815230907ff43f23b7a28e6f8ce6843a21bd7b48bce778aa913b8c8cf459edf7d770e8d38a906020015b60405180910390a250565b6000546001600160a01b031633146104665760405162461bcd60e51b81526004016103bf90610e5e565b600081116104ab5760405162461bcd60e51b81526020600482015260126024820152712737ba3434b733903a37903932b1b7bb32b960711b60448201526064016103bf565b6104bf6001600160a01b03831633836107d7565b816001600160a01b03167f8c1256b8896378cd5044f80c202f9772b9d77dc85c8a6eb51967210b09bfaa28826040516104fa91815260200190565b60405180910390a25050565b6000546001600160a01b031633146105305760405162461bcd60e51b81526004016103bf90610e5e565b600081116105755760405162461bcd60e51b81526020600482015260126024820152712737ba3434b733903a37903932b1b7bb32b960711b60448201526064016103bf565b604051339082156108fc029083906000818181858888f193505050501580156105a2573d6000803e3d6000fd5b506040518181526000907f8c1256b8896378cd5044f80c202f9772b9d77dc85c8a6eb51967210b09bfaa2890602001610431565b6000546001600160a01b031633146106005760405162461bcd60e51b81526004016103bf90610e5e565b8051610613906002906020840190610b21565b507f2319d1693ced5c256216527c7586842758cea48e90a4d4f69304f76883413798816040516106439190610bea565b60405180910390a150565b6040805160a08101825260008082526020820181905291810182905260608101829052608081019190915261068484848461082e565b90505b9392505050565b6000546001600160a01b031633146106b85760405162461bcd60e51b81526004016103bf90610e5e565b6001600160a01b03811661071d5760405162461bcd60e51b815260206004820152602660248201527f4f776e61626c653a206e6577206f776e657220697320746865207a65726f206160448201526564647265737360d01b60648201526084016103bf565b61072681610787565b50565b826001600160a01b0316846001600160a01b03167fe2bdbc6b7225eb0a972ac943c485a6cc05f7c6811838bce8903f23200fb744fa8888604051610777929190918252602082015260400190565b60405180910390a3505050505050565b600080546001600160a01b038381166001600160a01b0319831681178455604051919092169283917f8be0079c531659141344cd1fd0a4f28419497f9722a3daafe3b4186f6b6457e09190a35050565b604080516001600160a01b038416602482015260448082018490528251808303909101815260649091019091526020810180516001600160e01b031663a9059cbb60e01b17905261082990849061093b565b505050565b6040805160a0810182526000808252602082018190529181018290526060810182905260808101919091527f00000000000000000000000000000000000000000000000000000000000000006001600160a01b0316836001600160a01b03161480156108cb57507f00000000000000000000000000000000000000000000000000000000000000006001600160a01b0316826001600160a01b0316145b15610687576040518060a00160405280857f00000000000000000000000000000000000000000000000000000000000000006109079190610e93565b8152600060208201523060408201819052606082015260035460a01b6001600160a01b031916608090910152949350505050565b6000610990826040518060400160405280602081526020017f5361666545524332303a206c6f772d6c6576656c2063616c6c206661696c6564815250856001600160a01b0316610a0d9092919063ffffffff16565b80519091501561082957808060200190518101906109ae9190610ec0565b6108295760405162461bcd60e51b815260206004820152602a60248201527f5361666545524332303a204552433230206f7065726174696f6e20646964206e6044820152691bdd081cdd58d8d9595960b21b60648201526084016103bf565b60606106848484600085856001600160a01b0385163b610a6f5760405162461bcd60e51b815260206004820152601d60248201527f416464726573733a2063616c6c20746f206e6f6e2d636f6e747261637400000060448201526064016103bf565b600080866001600160a01b03168587604051610a8b9190610ee2565b60006040518083038185875af1925050503d8060008114610ac8576040519150601f19603f3d011682016040523d82523d6000602084013e610acd565b606091505b5091509150610add828286610ae8565b979650505050505050565b60608315610af7575081610687565b825115610b075782518084602001fd5b8160405162461bcd60e51b81526004016103bf9190610bea565b828054610b2d90610e23565b90600052602060002090601f016020900481019282610b4f5760008555610b95565b82601f10610b6857805160ff1916838001178555610b95565b82800160010185558215610b95579182015b82811115610b95578251825591602001919060010190610b7a565b50610ba1929150610ba5565b5090565b5b80821115610ba15760008155600101610ba6565b60005b83811015610bd5578181015183820152602001610bbd565b83811115610be4576000848401525b50505050565b6020815260008251806020840152610c09816040850160208701610bba565b601f01601f19169190910160400192915050565b600060208284031215610c2f57600080fd5b5035919050565b80356001600160a01b0381168114610c4d57600080fd5b919050565b60008060408385031215610c6557600080fd5b610c6e83610c36565b946020939093013593505050565b600060208284031215610c8e57600080fd5b81356001600160a01b03198116811461068757600080fd5b634e487b7160e01b600052604160045260246000fd5b600060208284031215610cce57600080fd5b813567ffffffffffffffff80821115610ce657600080fd5b818401915084601f830112610cfa57600080fd5b813581811115610d0c57610d0c610ca6565b604051601f8201601f19908116603f01168101908382118183101715610d3457610d34610ca6565b81604052828152876020848701011115610d4d57600080fd5b826020860160208301376000928101602001929092525095945050505050565b600080600060608486031215610d8257600080fd5b83359250610d9260208501610c36565b9150610da060408501610c36565b90509250925092565b600060208284031215610dbb57600080fd5b61068782610c36565b60008060008060008060c08789031215610ddd57600080fd5b8635955060208701359450610df460408801610c36565b9350610e0260608801610c36565b9250610e1060808801610c36565b915060a087013590509295509295509295565b600181811c90821680610e3757607f821691505b60208210811415610e5857634e487b7160e01b600052602260045260246000fd5b50919050565b6020808252818101527f4f776e61626c653a2063616c6c6572206973206e6f7420746865206f776e6572604082015260600190565b6000816000190483118215151615610ebb57634e487b7160e01b600052601160045260246000fd5b500290565b600060208284031215610ed257600080fd5b8151801515811461068757600080fd5b60008251610ef4818460208701610bba565b919091019291505056fea2646970667358221220dd88786f322bc9df05017c1f90779a0cc065d210c1bfc4f4cb05e0067b82a71364736f6c634300080c00334f776e61626c653a2063616c6c6572206973206e6f7420746865206f776e6572",
    "linkReferences": {}
  }
}