{
  "abi": [
    {
      "inputs": [],
      "stateMutability": "nonpayable",
      "type": "constructor"
    },
    {
      "anonymous": false,
      "inputs": [
        {
          "indexed": true,
          "internalType": "address",
          "name": "previousOwner",
          "type": "address"
        },
        {
          "indexed": true,
          "internalType": "address",
          "name": "newOwner",
          "type": "address"
        }
      ],
      "name": "OwnershipTransferred",
      "type": "event"
    },
    {
      "anonymous": false,
      "inputs": [
        {
          "indexed": true,
          "internalType": "address",
          "name": "_asset",
          "type": "address"
        },
        {
          "indexed": false,
          "internalType": "uint256",
          "name": "amount",
          "type": "uint256"
        }
      ],
      "name": "Recovered",
      "type": "event"
    },
    {
      "anonymous": false,
      "inputs": [
        {
          "indexed": true,
          "internalType": "address",
          "name": "adapter",
          "type": "address"
        },
        {
          "indexed": false,
          "internalType": "uint256",
          "name": "newEstimate",
          "type": "uint256"
        }
      ],
      "name": "UpdatedGasEstimate",
      "type": "event"
    },
    {
      "anonymous": false,
      "inputs": [
        {
          "indexed": false,
          "internalType": "string",
          "name": "newName",
          "type": "string"
        }
      ],
      "name": "UpdatedName",
      "type": "event"
    },
    {
      "anonymous": false,
      "inputs": [
        {
          "indexed": true,
          "internalType": "address",
          "name": "tokenFrom",
          "type": "address"
        },
        {
          "indexed": true,
          "internalType": "address",
          "name": "tokenTo",
          "type": "address"
        },
        {
          "indexed": false,
          "internalType": "uint256",
          "name": "amountIn",
          "type": "uint256"
        },
        {
          "indexed": false,
          "internalType": "uint256",
          "name": "amountOut",
          "type": "uint256"
        }
      ],
      "name": "YakAdapterSwap",
      "type": "event"
    },
    {
      "inputs": [
        {
          "internalType": "address",
          "name": "_tknFrom",
          "type": "address"
        },
        {
          "internalType": "address",
          "name": "_tknTo",
          "type": "address"
        }
      ],
      "name": "getSPs",
      "outputs": [
        {
          "internalType": "address[]",
          "name": "",
          "type": "address[]"
        }
      ],
      "stateMutability": "view",
      "type": "function"
    },
    {
      "inputs": [],
      "name": "name",
      "outputs": [
        {
          "internalType": "string",
          "name": "",
          "type": "string"
        }
      ],
      "stateMutability": "view",
      "type": "function"
    },
    {
      "inputs": [],
      "name": "owner",
      "outputs": [
        {
          "internalType": "address",
          "name": "",
          "type": "address"
        }
      ],
      "stateMutability": "view",
      "type": "function"
    },
    {
      "inputs": [
        {
          "internalType": "address",
          "name": "_tknFrom",
          "type": "address"
        },
        {
          "internalType": "address",
          "name": "_tknTo",
          "type": "address"
        },
        {
          "internalType": "address[]",
          "name": "_sps",
          "type": "address[]"
        }
      ],
      "name": "pushSP",
      "outputs": [],
      "stateMutability": "nonpayable",
      "type": "function"
    },
    {
      "inputs": [
        {
          "internalType": "uint256",
          "name": "_amountIn",
          "type": "uint256"
        },
        {
          "internalType": "address",
          "name": "_tokenIn",
          "type": "address"
        },
        {
          "internalType": "address",
          "name": "_tokenOut",
          "type": "address"
        }
      ],
      "name": "query",
      "outputs": [
        {
          "components": [
            {
              "internalType": "uint256",
              "name": "amountOut",
              "type": "uint256"
            },
            {
              "internalType": "bytes32",
              "name": "extra",
              "type": "bytes32"
            },
            {
              "internalType": "address",
              "name": "target",
              "type": "address"
            },
            {
              "internalType": "bytes12",
              "name": "blacklistID",
              "type": "bytes12"
            }
          ],
          "internalType": "struct IYakAdapter.QueryResult",
          "name": "",
          "type": "tuple"
        }
      ],
      "stateMutability": "view",
      "type": "function"
    },
    {
      "inputs": [
        {
          "internalType": "address",
          "name": "_tokenAddress",
          "type": "address"
        },
        {
          "internalType": "uint256",
          "name": "_tokenAmount",
          "type": "uint256"
        }
      ],
      "name": "recoverERC20",
      "outputs": [],
      "stateMutability": "nonpayable",
      "type": "function"
    },
    {
      "inputs": [
        {
          "internalType": "uint256",
          "name": "_amount",
          "type": "uint256"
        }
      ],
      "name": "recoverNative",
      "outputs": [],
      "stateMutability": "nonpayable",
      "type": "function"
    },
    {
      "inputs": [
        {
          "internalType": "address",
          "name": "_tknFrom",
          "type": "address"
        },
        {
          "internalType": "address",
          "name": "_tknTo",
          "type": "address"
        },
        {
          "internalType": "uint256",
          "name": "_index",
          "type": "uint256"
        }
      ],
      "name": "removeSP",
      "outputs": [],
      "stateMutability": "nonpayable",
      "type": "function"
    },
    {
      "inputs": [
        {
          "internalType": "address",
          "name": "_tknFrom",
          "type": "address"
        },
        {
          "internalType": "address",
          "name": "_tknTo",
          "type": "address"
        },
        {
          "internalType": "uint256[]",
          "name": "_indices",
          "type": "uint256[]"
        }
      ],
      "name": "removeSPs",
      "outputs": [],
      "stateMutability": "nonpayable",
      "type": "function"
    },
    {
      "inputs": [],
      "name": "renounceOwnership",
      "outputs": [],
      "stateMutability": "nonpayable",
      "type": "function"
    },
    {
      "inputs": [
        {
          "internalType": "string",
          "name": "_name",
          "type": "string"
        }
      ],
      "name": "setName",
      "outputs": [],
      "stateMutability": "nonpayable",
      "type": "function"
    },
    {
      "inputs": [
        {
          "internalType": "address",
          "name": "_tknFrom",
          "type": "address"
        },
        {
          "internalType": "address",
          "name": "_tknTo",
          "type": "address"
        },
        {
          "internalType": "address[]",
          "name": "_sps",
          "type": "address[]"
        }
      ],
      "name": "setSPs",
      "outputs": [],
      "stateMutability": "nonpayable",
      "type": "function"
    },
    {
      "inputs": [
        {
          "internalType": "uint256",
          "name": "_estimate",
          "type": "uint256"
        }
      ],
      "name": "setSwapGasEstimate",
      "outputs": [],
      "stateMutability": "nonpayable",
      "type": "function"
    },
    {
      "inputs": [
        {
          "internalType": "uint256",
          "name": "_amountIn",
          "type": "uint256"
        },
        {
          "internalType": "uint256",
          "name": "_amountOut",
          "type": "uint256"
        },
        {
          "internalType": "address",
          "name": "_fromToken",
          "type": "address"
        },
        {
          "internalType": "address",
          "name": "_toToken",
          "type": "address"
        },
        {
          "internalType": "address",
          "name": "_to",
          "type": "address"
        },
        {
          "internalType": "bytes32",
          "name": "_extra",
          "type": "bytes32"
        }
      ],
      "name": "swap",
      "outputs": [],
      "stateMutability": "nonpayable",
      "type": "function"
    },
    {
      "inputs": [],
      "name": "swapGasEstimate",
      "outputs": [
        {
          "internalType": "uint256",
          "name": "",
          "type": "uint256"
        }
      ],
      "stateMutability": "view",
      "type": "function"
    },
    {
      "inputs": [
        {
          "internalType": "address",
          "name": "newOwner",
          "type": "address"
        }
      ],
      "name": "transferOwnership",
      "outputs": [],
      "stateMutability": "nonpayable",
      "type": "function"
    },
    {
      "stateMutability": "payable",
      "type": "receive"
    }
  ],
  "bytecode": {
    "object": "0x60a06040523480156200001157600080fd5b5060408051808201909152601081526f29b4b733b632a837b7b62937baba32b960811b602082015261053560f41b9060006200004d336200006e565b6200005881620000be565b62000063826200014a565b505060805262000322565b600080546001600160a01b038381166001600160a01b0319831681178455604051919092169283917f8be0079c531659141344cd1fd0a4f28419497f9722a3daafe3b4186f6b6457e09190a35050565b6000546001600160a01b031633146200010d5760405162461bcd60e51b8152602060048201819052602482015260008051602062001b9883398151915260448201526064015b60405180910390fd5b600481905560405181815230907ff43f23b7a28e6f8ce6843a21bd7b48bce778aa913b8c8cf459edf7d770e8d38a9060200160405180910390a250565b6000546001600160a01b03163314620001955760405162461bcd60e51b8152602060048201819052602482015260008051602062001b98833981519152604482015260640162000104565b8051620001aa906005906020840190620001e7565b507f2319d1693ced5c256216527c7586842758cea48e90a4d4f69304f7688341379881604051620001dc91906200028d565b60405180910390a150565b828054620001f590620002e5565b90600052602060002090601f01602090048101928262000219576000855562000264565b82601f106200023457805160ff191683800117855562000264565b8280016001018555821562000264579182015b828111156200026457825182559160200191906001019062000247565b506200027292915062000276565b5090565b5b8082111562000272576000815560010162000277565b600060208083528351808285015260005b81811015620002bc578581018301518582016040015282016200029e565b81811115620002cf576000604083870101525b50601f01601f1916929092016040019392505050565b600181811c90821680620002fa57607f821691505b602082108114156200031c57634e487b7160e01b600052602260045260246000fd5b50919050565b60805161185d6200033b6000396000505061185d6000f3fe6080604052600436106100f75760003560e01c80638da5cb5b1161008a578063c989036d11610059578063c989036d1461023e578063ef99893a1461029e578063f2fde38b146102cb578063f8630156146102eb57600080fd5b80638da5cb5b146102165780638ea703d51461023e578063aede36931461025e578063c47f00271461027e57600080fd5b806369cff80d116100c657806369cff80d1461019d578063715018a6146101c157806384a33e63146101d65780638980f11f146101f657600080fd5b806306fdde03146101035780630c2614961461012e57806335ee6e3f146101505780634ed43fad1461017057600080fd5b366100fe57005b600080fd5b34801561010f57600080fd5b5061011861030b565b6040516101259190611276565b60405180910390f35b34801561013a57600080fd5b5061014e6101493660046112be565b610399565b005b34801561015c57600080fd5b5061014e61016b36600461134b565b610517565b34801561017c57600080fd5b5061019061018b3660046113b0565b6107fa565b60405161012591906113e9565b3480156101a957600080fd5b506101b360045481565b604051908152602001610125565b3480156101cd57600080fd5b5061014e61087d565b3480156101e257600080fd5b5061014e6101f1366004611436565b6108b3565b34801561020257600080fd5b5061014e61021136600461144f565b61091b565b34801561022257600080fd5b506000546040516001600160a01b039091168152602001610125565b34801561024a57600080fd5b5061014e61025936600461134b565b6109e5565b34801561026a57600080fd5b5061014e610279366004611436565b610a46565b34801561028a57600080fd5b5061014e610299366004611491565b610b16565b3480156102aa57600080fd5b506102be6102b9366004611542565b610b8e565b604051610125919061159a565b3480156102d757600080fd5b5061014e6102e63660046115f4565b610ba4565b3480156102f757600080fd5b5061014e610306366004611611565b610c3f565b6005805461031890611678565b80601f016020809104026020016040519081016040528092919081815260200182805461034490611678565b80156103915780601f1061036657610100808354040283529160200191610391565b820191906000526020600020905b81548152906001019060200180831161037457829003601f168201915b505050505081565b6000546001600160a01b031633146103cc5760405162461bcd60e51b81526004016103c3906116b3565b60405180910390fd5b6001600160a01b03808416600090815260066020908152604080832093861683529290522054816103fe6001836116fe565b11156104bb576001600160a01b0380851660009081526006602090815260408083209387168352929052206104346001836116fe565b8154811061044457610444611715565b60009182526020808320909101546001600160a01b03878116845260068352604080852088831686529093529190922080549190921691908490811061048c5761048c611715565b9060005260206000200160006101000a8154816001600160a01b0302191690836001600160a01b031602179055505b6001600160a01b0380851660009081526006602090815260408083209387168352929052208054806104ef576104ef61172b565b600082815260209020810160001990810180546001600160a01b031916905501905550505050565b6000546001600160a01b031633146105415760405162461bcd60e51b81526004016103c3906116b3565b6001600160a01b038085166000908152600660209081526040808320938716835292905290812054908383828161057a5761057a611715565b90506020020135600161058d9190611741565b905060005b838110156107f1578484828181106105ac576105ac611715565b9050602002013582116106015760405162461bcd60e51b815260206004820152601b60248201527f496e6469636573206d75737420626520736f727465642064657363000000000060448201526064016103c3565b84848281811061061357610613611715565b9050602002013560018461062791906116fe565b11156106fc576001600160a01b038088166000908152600660209081526040808320938a1683529290522061065d6001856116fe565b8154811061066d5761066d611715565b60009182526020808320909101546001600160a01b038a811684526006835260408085208b83168652909352919092209116908686848181106106b2576106b2611715565b90506020020135815481106106c9576106c9611715565b9060005260206000200160006101000a8154816001600160a01b0302191690836001600160a01b03160217905550610760565b84848281811061070e5761070e611715565b9050602002013560018461072291906116fe565b10156107605760405162461bcd60e51b815260206004820152600d60248201526c4f7574206f6620626f756e647360981b60448201526064016103c3565b6001600160a01b038088166000908152600660209081526040808320938a168352929052208054806107945761079461172b565b600082815260209020810160001990810180546001600160a01b03191690550190556107c16001846116fe565b92508484828181106107d5576107d5611715565b90506020020135915080806107e990611759565b915050610592565b50505050505050565b6001600160a01b03808316600090815260066020908152604080832093851683529281529082902080548351818402810184019094528084526060939283018282801561087057602002820191906000526020600020905b81546001600160a01b03168152600190910190602001808311610852575b5050505050905092915050565b6000546001600160a01b031633146108a75760405162461bcd60e51b81526004016103c3906116b3565b6108b16000610cab565b565b6000546001600160a01b031633146108dd5760405162461bcd60e51b81526004016103c3906116b3565b600481905560405181815230907ff43f23b7a28e6f8ce6843a21bd7b48bce778aa913b8c8cf459edf7d770e8d38a906020015b60405180910390a250565b6000546001600160a01b031633146109455760405162461bcd60e51b81526004016103c3906116b3565b6000811161098a5760405162461bcd60e51b81526020600482015260126024820152712737ba3434b733903a37903932b1b7bb32b960711b60448201526064016103c3565b61099e6001600160a01b0383163383610cfb565b816001600160a01b03167f8c1256b8896378cd5044f80c202f9772b9d77dc85c8a6eb51967210b09bfaa28826040516109d991815260200190565b60405180910390a25050565b6000546001600160a01b03163314610a0f5760405162461bcd60e51b81526004016103c3906116b3565b6001600160a01b038085166000908152600660209081526040808320938716835292905220610a3f90838361115a565b5050505050565b6000546001600160a01b03163314610a705760405162461bcd60e51b81526004016103c3906116b3565b60008111610ab55760405162461bcd60e51b81526020600482015260126024820152712737ba3434b733903a37903932b1b7bb32b960711b60448201526064016103c3565b604051339082156108fc029083906000818181858888f19350505050158015610ae2573d6000803e3d6000fd5b506040518181526000907f8c1256b8896378cd5044f80c202f9772b9d77dc85c8a6eb51967210b09bfaa2890602001610910565b6000546001600160a01b03163314610b405760405162461bcd60e51b81526004016103c3906116b3565b8051610b539060059060208401906111bd565b507f2319d1693ced5c256216527c7586842758cea48e90a4d4f69304f7688341379881604051610b839190611276565b60405180910390a150565b36610b9a848484610d52565b90505b9392505050565b6000546001600160a01b03163314610bce5760405162461bcd60e51b81526004016103c3906116b3565b6001600160a01b038116610c335760405162461bcd60e51b815260206004820152602660248201527f4f776e61626c653a206e6577206f776e657220697320746865207a65726f206160448201526564647265737360d01b60648201526084016103c3565b610c3c81610cab565b50565b610c4d868686868686610ee8565b826001600160a01b0316846001600160a01b03167fe2bdbc6b7225eb0a972ac943c485a6cc05f7c6811838bce8903f23200fb744fa8888604051610c9b929190918252602082015260400190565b60405180910390a3505050505050565b600080546001600160a01b038381166001600160a01b0319831681178455604051919092169283917f8be0079c531659141344cd1fd0a4f28419497f9722a3daafe3b4186f6b6457e09190a35050565b604080516001600160a01b038416602482015260448082018490528251808303909101815260649091019091526020810180516001600160e01b031663a9059cbb60e01b179052610d4d908490610f74565b505050565b6040805160808101825260008082526020808301829052828401829052606083018290526001600160a01b03868116835260068252848320908616835281528382208054855181840281018401909652808652939492939091830182828015610de457602002820191906000526020600020905b81546001600160a01b03168152600190910190602001808311610dc6575b50505050509050610e1560408051608081018252600080825260208201819052918101829052606081019190915290565b60005b8251811015610ede576000838281518110610e3557610e35611715565b60209081029190910101516040516377ccc49d60e11b8152600481018a90526001600160a01b03898116602483015288811660448301529091169063ef99893a90606401608060405180830381865afa158015610e96573d6000803e3d6000fd5b505050506040513d601f19601f82011682018060405250810190610eba9190611774565b835181519192501015610ecb578092505b5080610ed681611759565b915050610e18565b5095945050505050565b8051604051637c3180ab60e11b815260048101889052602481018790526001600160a01b0386811660448301528581166064830152848116608483015260a48201849052919091169063f86301569060c401600060405180830381600087803b158015610f5457600080fd5b505af1158015610f68573d6000803e3d6000fd5b50505050505050505050565b6000610fc9826040518060400160405280602081526020017f5361666545524332303a206c6f772d6c6576656c2063616c6c206661696c6564815250856001600160a01b03166110469092919063ffffffff16565b805190915015610d4d5780806020019051810190610fe791906117e9565b610d4d5760405162461bcd60e51b815260206004820152602a60248201527f5361666545524332303a204552433230206f7065726174696f6e20646964206e6044820152691bdd081cdd58d8d9595960b21b60648201526084016103c3565b6060610b9a8484600085856001600160a01b0385163b6110a85760405162461bcd60e51b815260206004820152601d60248201527f416464726573733a2063616c6c20746f206e6f6e2d636f6e747261637400000060448201526064016103c3565b600080866001600160a01b031685876040516110c4919061180b565b60006040518083038185875af1925050503d8060008114611101576040519150601f19603f3d011682016040523d82523d6000602084013e611106565b606091505b5091509150611116828286611121565b979650505050505050565b60608315611130575081610b9d565b8251156111405782518084602001fd5b8160405162461bcd60e51b81526004016103c39190611276565b8280548282559060005260206000209081019282156111ad579160200282015b828111156111ad5781546001600160a01b0319166001600160a01b0384351617825560209092019160019091019061117a565b506111b9929150611231565b5090565b8280546111c990611678565b90600052602060002090601f0160209004810192826111eb57600085556111ad565b82601f1061120457805160ff19168380011785556111ad565b828001600101855582156111ad579182015b828111156111ad578251825591602001919060010190611216565b5b808211156111b95760008155600101611232565b60005b83811015611261578181015183820152602001611249565b83811115611270576000848401525b50505050565b6020815260008251806020840152611295816040850160208701611246565b601f01601f19169190910160400192915050565b6001600160a01b0381168114610c3c57600080fd5b6000806000606084860312156112d357600080fd5b83356112de816112a9565b925060208401356112ee816112a9565b929592945050506040919091013590565b60008083601f84011261131157600080fd5b50813567ffffffffffffffff81111561132957600080fd5b6020830191508360208260051b850101111561134457600080fd5b9250929050565b6000806000806060858703121561136157600080fd5b843561136c816112a9565b9350602085013561137c816112a9565b9250604085013567ffffffffffffffff81111561139857600080fd5b6113a4878288016112ff565b95989497509550505050565b600080604083850312156113c357600080fd5b82356113ce816112a9565b915060208301356113de816112a9565b809150509250929050565b6020808252825182820181905260009190848201906040850190845b8181101561142a5783516001600160a01b031683529284019291840191600101611405565b50909695505050505050565b60006020828403121561144857600080fd5b5035919050565b6000806040838503121561146257600080fd5b823561146d816112a9565b946020939093013593505050565b634e487b7160e01b600052604160045260246000fd5b6000602082840312156114a357600080fd5b813567ffffffffffffffff808211156114bb57600080fd5b818401915084601f8301126114cf57600080fd5b8135818111156114e1576114e161147b565b604051601f8201601f19908116603f011681019083821181831017156115095761150961147b565b8160405282815287602084870101111561152257600080fd5b826020860160208301376000928101602001929092525095945050505050565b60008060006060848603121561155757600080fd5b833592506020840135611569816112a9565b91506040840135611579816112a9565b809150509250925092565b6001600160a01b031981168114610c3c57600080fd5b81358152602080830135908201526080810160408301356115ba816112a9565b6001600160a01b0316604083015260608301356115d681611584565b6bffffffffffffffffffffffff60a01b811660608401525092915050565b60006020828403121561160657600080fd5b8135610b9d816112a9565b60008060008060008060c0878903121561162a57600080fd5b86359550602087013594506040870135611643816112a9565b93506060870135611653816112a9565b92506080870135611663816112a9565b8092505060a087013590509295509295509295565b600181811c9082168061168c57607f821691505b602082108114156116ad57634e487b7160e01b600052602260045260246000fd5b50919050565b6020808252818101527f4f776e61626c653a2063616c6c6572206973206e6f7420746865206f776e6572604082015260600190565b634e487b7160e01b600052601160045260246000fd5b600082821015611710576117106116e8565b500390565b634e487b7160e01b600052603260045260246000fd5b634e487b7160e01b600052603160045260246000fd5b60008219821115611754576117546116e8565b500190565b600060001982141561176d5761176d6116e8565b5060010190565b60006080828403121561178657600080fd5b6040516080810181811067ffffffffffffffff821117156117a9576117a961147b565b8060405250825181526020830151602082015260408301516117ca816112a9565b604082015260608301516117dd81611584565b60608201529392505050565b6000602082840312156117fb57600080fd5b81518015158114610b9d57600080fd5b6000825161181d818460208701611246565b919091019291505056fea2646970667358221220f543435b1676edbc296ef3f20b7e70ca7e8eb41847c21693772ca63c108bc02f64736f6c634300080c00334f776e61626c653a2063616c6c6572206973206e6f7420746865206f776e6572",
    "linkReferences": {}
  }
}