{
  "abi": [
    {
      "inputs": [
        {
          "internalType": "string",
          "name": "_name",
          "type": "string"
        },
        {
          "internalType": "address",
          "name": "_factory",
          "type": "address"
        },
        {
          "internalType": "uint256",
          "name": "_fee",
          "type": "uint256"
        },
        {
          "internalType": "uint256",
          "name": "_swapGasEstimate",
          "type": "uint256"
        }
      ],
      "stateMutability": "nonpayable",
      "type": "constructor"
    },
    {
      "anonymous": false,
      "inputs": [
        {
          "indexed": true,
          "internalType": "address",
          "name": "previousOwner",
          "type": "address"
        },
        {
          "indexed": true,
          "internalType": "address",
          "name": "newOwner",
          "type": "address"
        }
      ],
      "name": "OwnershipTransferred",
      "type": "event"
    },
    {
      "anonymous": false,
      "inputs": [
        {
          "indexed": true,
          "internalType": "address",
          "name": "_asset",
          "type": "address"
        },
        {
          "indexed": false,
          "internalType": "uint256",
          "name": "amount",
          "type": "uint256"
        }
      ],
      "name": "Recovered",
      "type": "event"
    },
    {
      "anonymous": false,
      "inputs": [
        {
          "indexed": true,
          "internalType": "address",
          "name": "adapter",
          "type": "address"
        },
        {
          "indexed": false,
          "internalType": "uint256",
          "name": "newEstimate",
          "type": "uint256"
        }
      ],
      "name": "UpdatedGasEstimate",
      "type": "event"
    },
    {
      "anonymous": false,
      "inputs": [
        {
          "indexed": false,
          "internalType": "string",
          "name": "newName",
          "type": "string"
        }
      ],
      "name": "UpdatedName",
      "type": "event"
    },
    {
      "anonymous": false,
      "inputs": [
        {
          "indexed": true,
          "internalType": "address",
          "name": "tokenFrom",
          "type": "address"
        },
        {
          "indexed": true,
          "internalType": "address",
          "name": "tokenTo",
          "type": "address"
        },
        {
          "indexed": false,
          "internalType": "uint256",
          "name": "amountIn",
          "type": "uint256"
        },
        {
          "indexed": false,
          "internalType": "uint256",
          "name": "amountOut",
          "type": "uint256"
        }
      ],
      "name": "YakAdapterSwap",
      "type": "event"
    },
    {
      "inputs": [],
      "name": "name",
      "outputs": [
        {
          "internalType": "string",
          "name": "",
          "type": "string"
        }
      ],
      "stateMutability": "view",
      "type": "function"
    },
    {
      "inputs": [],
      "name": "owner",
      "outputs": [
        {
          "internalType": "address",
          "name": "",
          "type": "address"
        }
      ],
      "stateMutability": "view",
      "type": "function"
    },
    {
      "inputs": [
        {
          "internalType": "uint256",
          "name": "_amountIn",
          "type": "uint256"
        },
        {
          "internalType": "address",
          "name": "_tokenIn",
          "type": "address"
        },
        {
          "internalType": "address",
          "name": "_tokenOut",
          "type": "address"
        }
      ],
      "name": "query",
      "outputs": [
        {
          "components": [
            {
              "internalType": "uint256",
              "name": "amountOut",
              "type": "uint256"
            },
            {
              "internalType": "bytes32",
              "name": "extra",
              "type": "bytes32"
            },
            {
              "internalType": "address",
              "name": "callTarget",
              "type": "address"
            },
            {
              "internalType": "address",
              "name": "fundTarget",
              "type": "address"
            },
            {
              "internalType": "bytes12",
              "name": "blacklistID",
              "type": "bytes12"
            }
          ],
          "internalType": "struct QueryResult",
          "name": "",
          "type": "tuple"
        }
      ],
      "stateMutability": "view",
      "type": "function"
    },
    {
      "inputs": [
        {
          "internalType": "address",
          "name": "_tokenAddress",
          "type": "address"
        },
        {
          "internalType": "uint256",
          "name": "_tokenAmount",
          "type": "uint256"
        }
      ],
      "name": "recoverERC20",
      "outputs": [],
      "stateMutability": "nonpayable",
      "type": "function"
    },
    {
      "inputs": [
        {
          "internalType": "uint256",
          "name": "_amount",
          "type": "uint256"
        }
      ],
      "name": "recoverNative",
      "outputs": [],
      "stateMutability": "nonpayable",
      "type": "function"
    },
    {
      "inputs": [],
      "name": "renounceOwnership",
      "outputs": [],
      "stateMutability": "nonpayable",
      "type": "function"
    },
    {
      "inputs": [
        {
          "internalType": "string",
          "name": "_name",
          "type": "string"
        }
      ],
      "name": "setName",
      "outputs": [],
      "stateMutability": "nonpayable",
      "type": "function"
    },
    {
      "inputs": [
        {
          "internalType": "uint256",
          "name": "_estimate",
          "type": "uint256"
        }
      ],
      "name": "setSwapGasEstimate",
      "outputs": [],
      "stateMutability": "nonpayable",
      "type": "function"
    },
    {
      "inputs": [
        {
          "internalType": "uint256",
          "name": "_amountIn",
          "type": "uint256"
        },
        {
          "internalType": "uint256",
          "name": "_amountOut",
          "type": "uint256"
        },
        {
          "internalType": "address",
          "name": "_fromToken",
          "type": "address"
        },
        {
          "internalType": "address",
          "name": "_toToken",
          "type": "address"
        },
        {
          "internalType": "address",
          "name": "_to",
          "type": "address"
        },
        {
          "internalType": "bytes32",
          "name": "_extra",
          "type": "bytes32"
        }
      ],
      "name": "swap",
      "outputs": [],
      "stateMutability": "nonpayable",
      "type": "function"
    },
    {
      "inputs": [],
      "name": "swapGasEstimate",
      "outputs": [
        {
          "internalType": "uint256",
          "name": "",
          "type": "uint256"
        }
      ],
      "stateMutability": "view",
      "type": "function"
    },
    {
      "inputs": [
        {
          "internalType": "address",
          "name": "newOwner",
          "type": "address"
        }
      ],
      "name": "transferOwnership",
      "outputs": [],
      "stateMutability": "nonpayable",
      "type": "function"
    },
    {
      "stateMutability": "payable",
      "type": "receive"
    }
  ],
  "bytecode": {
    "object": "0x60e06040523480156200001157600080fd5b50604051620017cd380380620017cd833981016040819052620000349162000312565b66556e696c696b6560c81b84826200004c336200008d565b6200005781620000dd565b620000628262000169565b505060805262000075826103e8620003ef565b60a05250506001600160a01b031660c0525062000487565b600080546001600160a01b038381166001600160a01b0319831681178455604051919092169283917f8be0079c531659141344cd1fd0a4f28419497f9722a3daafe3b4186f6b6457e09190a35050565b6000546001600160a01b031633146200012c5760405162461bcd60e51b81526020600482018190526024820152600080516020620017ad83398151915260448201526064015b60405180910390fd5b600181905560405181815230907ff43f23b7a28e6f8ce6843a21bd7b48bce778aa913b8c8cf459edf7d770e8d38a9060200160405180910390a250565b6000546001600160a01b03163314620001b45760405162461bcd60e51b81526020600482018190526024820152600080516020620017ad833981519152604482015260640162000123565b8051620001c990600290602084019062000206565b507f2319d1693ced5c256216527c7586842758cea48e90a4d4f69304f7688341379881604051620001fb919062000415565b60405180910390a150565b82805462000214906200044a565b90600052602060002090601f01602090048101928262000238576000855562000283565b82601f106200025357805160ff191683800117855562000283565b8280016001018555821562000283579182015b828111156200028357825182559160200191906001019062000266565b506200029192915062000295565b5090565b5b8082111562000291576000815560010162000296565b634e487b7160e01b600052604160045260246000fd5b60005b83811015620002df578181015183820152602001620002c5565b83811115620002ef576000848401525b50505050565b80516001600160a01b03811681146200030d57600080fd5b919050565b600080600080608085870312156200032957600080fd5b84516001600160401b03808211156200034157600080fd5b818701915087601f8301126200035657600080fd5b8151818111156200036b576200036b620002ac565b604051601f8201601f19908116603f01168101908382118183101715620003965762000396620002ac565b816040528281528a6020848701011115620003b057600080fd5b620003c3836020830160208801620002c2565b8098505050505050620003d960208601620002f5565b6040860151606090960151949790965092505050565b6000828210156200041057634e487b7160e01b600052601160045260246000fd5b500390565b602081526000825180602084015262000436816040850160208701620002c2565b601f01601f19169190910160400192915050565b600181811c908216806200045f57607f821691505b602082108114156200048157634e487b7160e01b600052602260045260246000fd5b50919050565b60805160a05160c0516112f9620004b4600039600061082201526000610b860152600050506112f96000f3fe6080604052600436106100a05760003560e01c80638da5cb5b116100645780638da5cb5b14610152578063aede36931461017a578063c47f00271461019a578063ef99893a146101ba578063f2fde38b14610232578063f86301561461025257600080fd5b806306fdde03146100ac57806369cff80d146100d7578063715018a6146100fb57806384a33e63146101125780638980f11f1461013257600080fd5b366100a757005b600080fd5b3480156100b857600080fd5b506100c1610272565b6040516100ce9190610ef7565b60405180910390f35b3480156100e357600080fd5b506100ed60015481565b6040519081526020016100ce565b34801561010757600080fd5b50610110610300565b005b34801561011e57600080fd5b5061011061012d366004610f0a565b61033f565b34801561013e57600080fd5b5061011061014d366004610f38565b6103a7565b34801561015e57600080fd5b506000546040516001600160a01b0390911681526020016100ce565b34801561018657600080fd5b50610110610195366004610f0a565b610471565b3480156101a657600080fd5b506101106101b5366004610f7a565b610541565b3480156101c657600080fd5b506101da6101d536600461102b565b6105b9565b6040516100ce919081518152602080830151908201526040808301516001600160a01b0390811691830191909152606080840151909116908201526080918201516001600160a01b0319169181019190915260a00190565b34801561023e57600080fd5b5061011061024d36600461106d565b6105f9565b34801561025e57600080fd5b5061011061026d36600461108a565b610694565b6002805461027f906110f1565b80601f01602080910402602001604051908101604052809291908181526020018280546102ab906110f1565b80156102f85780601f106102cd576101008083540402835291602001916102f8565b820191906000526020600020905b8154815290600101906020018083116102db57829003601f168201915b505050505081565b6000546001600160a01b031633146103335760405162461bcd60e51b815260040161032a9061112c565b60405180910390fd5b61033d6000610700565b565b6000546001600160a01b031633146103695760405162461bcd60e51b815260040161032a9061112c565b600181905560405181815230907ff43f23b7a28e6f8ce6843a21bd7b48bce778aa913b8c8cf459edf7d770e8d38a906020015b60405180910390a250565b6000546001600160a01b031633146103d15760405162461bcd60e51b815260040161032a9061112c565b600081116104165760405162461bcd60e51b81526020600482015260126024820152712737ba3434b733903a37903932b1b7bb32b960711b604482015260640161032a565b61042a6001600160a01b0383163383610750565b816001600160a01b03167f8c1256b8896378cd5044f80c202f9772b9d77dc85c8a6eb51967210b09bfaa288260405161046591815260200190565b60405180910390a25050565b6000546001600160a01b0316331461049b5760405162461bcd60e51b815260040161032a9061112c565b600081116104e05760405162461bcd60e51b81526020600482015260126024820152712737ba3434b733903a37903932b1b7bb32b960711b604482015260640161032a565b604051339082156108fc029083906000818181858888f1935050505015801561050d573d6000803e3d6000fd5b506040518181526000907f8c1256b8896378cd5044f80c202f9772b9d77dc85c8a6eb51967210b09bfaa289060200161039c565b6000546001600160a01b0316331461056b5760405162461bcd60e51b815260040161032a9061112c565b805161057e906002906020840190610e02565b507f2319d1693ced5c256216527c7586842758cea48e90a4d4f69304f76883413798816040516105ae9190610ef7565b60405180910390a150565b6040805160a0810182526000808252602082018190529181018290526060810182905260808101919091526105ef8484846107a7565b90505b9392505050565b6000546001600160a01b031633146106235760405162461bcd60e51b815260040161032a9061112c565b6001600160a01b0381166106885760405162461bcd60e51b815260206004820152602660248201527f4f776e61626c653a206e6577206f776e657220697320746865207a65726f206160448201526564647265737360d01b606482015260840161032a565b61069181610700565b50565b6106a28686868686866109e0565b826001600160a01b0316846001600160a01b03167fe2bdbc6b7225eb0a972ac943c485a6cc05f7c6811838bce8903f23200fb744fa88886040516106f0929190918252602082015260400190565b60405180910390a3505050505050565b600080546001600160a01b038381166001600160a01b0319831681178455604051919092169283917f8be0079c531659141344cd1fd0a4f28419497f9722a3daafe3b4186f6b6457e09190a35050565b604080516001600160a01b038416602482015260448082018490528251808303909101815260649091019091526020810180516001600160e01b031663a9059cbb60e01b1790526107a2908490610aac565b505050565b6040805160a081018252600080825260208201819052918101829052606081018290526080810191909152816001600160a01b0316836001600160a01b0316141580156107f357508315155b156105f25760405163e6a4390560e01b81526001600160a01b03848116600483015283811660248301526000917f00000000000000000000000000000000000000000000000000000000000000009091169063e6a4390590604401602060405180830381865afa15801561086b573d6000803e3d6000fd5b505050506040513d601f19601f8201168201806040525081019061088f9190611161565b90506001600160a01b038116156109d857600080826001600160a01b0316630902f1ac6040518163ffffffff1660e01b8152600401606060405180830381865afa1580156108e1573d6000803e3d6000fd5b505050506040513d601f19601f82011682018060405250810190610905919061119a565b506001600160701b031691506001600160701b03169150600080866001600160a01b0316886001600160a01b03161061093f578284610942565b83835b915091506000821180156109565750600081115b156109d35760006109688a8484610b7e565b905061097386610beb565b61097d6000610c33565b61098f6001600160a01b038716610c33565b6040518060a001604052808281526020016109b0886001600160a01b031690565b81523060208201526001600160a01b038816604082015260006060909101529650505b505050505b509392505050565b600080846001600160a01b0316866001600160a01b031610610a0457866000610a08565b6000875b91509150610a138390565b6001600160a01b031663022c0d9f83838760006040519080825280601f01601f191660200182016040528015610a50576020820181803683370190505b506040518563ffffffff1660e01b8152600401610a7094939291906111df565b600060405180830381600087803b158015610a8a57600080fd5b505af1158015610a9e573d6000803e3d6000fd5b505050505050505050505050565b6000610b01826040518060400160405280602081526020017f5361666545524332303a206c6f772d6c6576656c2063616c6c206661696c6564815250856001600160a01b0316610c789092919063ffffffff16565b8051909150156107a25780806020019051810190610b1f9190611216565b6107a25760405162461bcd60e51b815260206004820152602a60248201527f5361666545524332303a204552433230206f7065726174696f6e20646964206e6044820152691bdd081cdd58d8d9595960b21b606482015260840161032a565b600080610bab7f00000000000000000000000000000000000000000000000000000000000000008661124e565b90506000610bb9848361124e565b9050600082610bca6103e88861124e565b610bd4919061126d565b9050610be08183611285565b979650505050505050565b6040516001600160a01b03821660248201526106919060440160408051601f198184030181529190526020810180516001600160e01b031663161765e160e11b179052610c87565b61069181604051602401610c4991815260200190565b60408051601f198184030181529190526020810180516001600160e01b03166327b7cf8560e01b179052610c87565b60606105ef8484600085610ca8565b80516a636f6e736f6c652e6c6f67602083016000808483855afa5050505050565b606082471015610d095760405162461bcd60e51b815260206004820152602660248201527f416464726573733a20696e73756666696369656e742062616c616e636520666f6044820152651c8818d85b1b60d21b606482015260840161032a565b6001600160a01b0385163b610d605760405162461bcd60e51b815260206004820152601d60248201527f416464726573733a2063616c6c20746f206e6f6e2d636f6e7472616374000000604482015260640161032a565b600080866001600160a01b03168587604051610d7c91906112a7565b60006040518083038185875af1925050503d8060008114610db9576040519150601f19603f3d011682016040523d82523d6000602084013e610dbe565b606091505b5091509150610be082828660608315610dd85750816105f2565b825115610de85782518084602001fd5b8160405162461bcd60e51b815260040161032a9190610ef7565b828054610e0e906110f1565b90600052602060002090601f016020900481019282610e305760008555610e76565b82601f10610e4957805160ff1916838001178555610e76565b82800160010185558215610e76579182015b82811115610e76578251825591602001919060010190610e5b565b50610e82929150610e86565b5090565b5b80821115610e825760008155600101610e87565b60005b83811015610eb6578181015183820152602001610e9e565b83811115610ec5576000848401525b50505050565b60008151808452610ee3816020860160208601610e9b565b601f01601f19169290920160200192915050565b6020815260006105f26020830184610ecb565b600060208284031215610f1c57600080fd5b5035919050565b6001600160a01b038116811461069157600080fd5b60008060408385031215610f4b57600080fd5b8235610f5681610f23565b946020939093013593505050565b634e487b7160e01b600052604160045260246000fd5b600060208284031215610f8c57600080fd5b813567ffffffffffffffff80821115610fa457600080fd5b818401915084601f830112610fb857600080fd5b813581811115610fca57610fca610f64565b604051601f8201601f19908116603f01168101908382118183101715610ff257610ff2610f64565b8160405282815287602084870101111561100b57600080fd5b826020860160208301376000928101602001929092525095945050505050565b60008060006060848603121561104057600080fd5b83359250602084013561105281610f23565b9150604084013561106281610f23565b809150509250925092565b60006020828403121561107f57600080fd5b81356105f281610f23565b60008060008060008060c087890312156110a357600080fd5b863595506020870135945060408701356110bc81610f23565b935060608701356110cc81610f23565b925060808701356110dc81610f23565b8092505060a087013590509295509295509295565b600181811c9082168061110557607f821691505b6020821081141561112657634e487b7160e01b600052602260045260246000fd5b50919050565b6020808252818101527f4f776e61626c653a2063616c6c6572206973206e6f7420746865206f776e6572604082015260600190565b60006020828403121561117357600080fd5b81516105f281610f23565b80516001600160701b038116811461119557600080fd5b919050565b6000806000606084860312156111af57600080fd5b6111b88461117e565b92506111c66020850161117e565b9150604084015163ffffffff8116811461106257600080fd5b84815283602082015260018060a01b038316604082015260806060820152600061120c6080830184610ecb565b9695505050505050565b60006020828403121561122857600080fd5b815180151581146105f257600080fd5b634e487b7160e01b600052601160045260246000fd5b600081600019048311821515161561126857611268611238565b500290565b6000821982111561128057611280611238565b500190565b6000826112a257634e487b7160e01b600052601260045260246000fd5b500490565b600082516112b9818460208701610e9b565b919091019291505056fea2646970667358221220e6eb3cc60120d877a3d9d94c37b2adb351da349a12b6f59fefb7836fe925f63364736f6c634300080c00334f776e61626c653a2063616c6c6572206973206e6f7420746865206f776e6572",
    "linkReferences": {}
  }
}