{
  "abi": [
    {
      "anonymous": false,
      "inputs": [
        {
          "indexed": true,
          "internalType": "address",
          "name": "previousOwner",
          "type": "address"
        },
        {
          "indexed": true,
          "internalType": "address",
          "name": "newOwner",
          "type": "address"
        }
      ],
      "name": "OwnershipTransferred",
      "type": "event"
    },
    {
      "inputs": [
        {
          "internalType": "address",
          "name": "_tknFrom",
          "type": "address"
        },
        {
          "internalType": "address",
          "name": "_tknTo",
          "type": "address"
        }
      ],
      "name": "getSPs",
      "outputs": [
        {
          "internalType": "address[]",
          "name": "",
          "type": "address[]"
        }
      ],
      "stateMutability": "view",
      "type": "function"
    },
    {
      "inputs": [],
      "name": "owner",
      "outputs": [
        {
          "internalType": "address",
          "name": "",
          "type": "address"
        }
      ],
      "stateMutability": "view",
      "type": "function"
    },
    {
      "inputs": [
        {
          "internalType": "address",
          "name": "_tknFrom",
          "type": "address"
        },
        {
          "internalType": "address",
          "name": "_tknTo",
          "type": "address"
        },
        {
          "internalType": "address[]",
          "name": "_sps",
          "type": "address[]"
        }
      ],
      "name": "pushSP",
      "outputs": [],
      "stateMutability": "nonpayable",
      "type": "function"
    },
    {
      "inputs": [
        {
          "internalType": "address",
          "name": "_tknFrom",
          "type": "address"
        },
        {
          "internalType": "address",
          "name": "_tknTo",
          "type": "address"
        },
        {
          "internalType": "uint256",
          "name": "_index",
          "type": "uint256"
        }
      ],
      "name": "removeSP",
      "outputs": [],
      "stateMutability": "nonpayable",
      "type": "function"
    },
    {
      "inputs": [
        {
          "internalType": "address",
          "name": "_tknFrom",
          "type": "address"
        },
        {
          "internalType": "address",
          "name": "_tknTo",
          "type": "address"
        },
        {
          "internalType": "uint256[]",
          "name": "_indices",
          "type": "uint256[]"
        }
      ],
      "name": "removeSPs",
      "outputs": [],
      "stateMutability": "nonpayable",
      "type": "function"
    },
    {
      "inputs": [],
      "name": "renounceOwnership",
      "outputs": [],
      "stateMutability": "nonpayable",
      "type": "function"
    },
    {
      "inputs": [
        {
          "internalType": "address",
          "name": "_tknFrom",
          "type": "address"
        },
        {
          "internalType": "address",
          "name": "_tknTo",
          "type": "address"
        },
        {
          "internalType": "address[]",
          "name": "_sps",
          "type": "address[]"
        }
      ],
      "name": "setSPs",
      "outputs": [],
      "stateMutability": "nonpayable",
      "type": "function"
    },
    {
      "inputs": [
        {
          "internalType": "address",
          "name": "newOwner",
          "type": "address"
        }
      ],
      "name": "transferOwnership",
      "outputs": [],
      "stateMutability": "nonpayable",
      "type": "function"
    }
  ],
  "bytecode": {
    "object": "0x608060405234801561001057600080fd5b5061001a3361001f565b61006f565b600080546001600160a01b038381166001600160a01b0319831681178455604051919092169283917f8be0079c531659141344cd1fd0a4f28419497f9722a3daafe3b4186f6b6457e09190a35050565b610aaa8061007e6000396000f3fe608060405234801561001057600080fd5b50600436106100885760003560e01c80638da5cb5b1161005b5780638da5cb5b146100e65780638ea703d514610101578063c989036d14610101578063f2fde38b1461011457600080fd5b80630c2614961461008d57806335ee6e3f146100a25780634ed43fad146100b5578063715018a6146100de575b600080fd5b6100a061009b366004610828565b610127565b005b6100a06100b03660046108b0565b6102aa565b6100c86100c3366004610911565b61058f565b6040516100d59190610944565b60405180910390f35b6100a0610612565b6000546040516001600160a01b0390911681526020016100d5565b6100a061010f3660046108b0565b610648565b6100a0610122366004610991565b6106a9565b6000546001600160a01b0316331461015a5760405162461bcd60e51b8152600401610151906109b3565b60405180910390fd5b6001600160a01b03808416600090815260016020818152604080842094871684529390529190205490829061018f90836109fe565b111561024e576001600160a01b0380851660009081526001602081815260408084209488168452939052919020906101c790836109fe565b815481106101d7576101d7610a15565b60009182526020808320909101546001600160a01b03878116845260018352604080852088831686529093529190922080549190921691908490811061021f5761021f610a15565b9060005260206000200160006101000a8154816001600160a01b0302191690836001600160a01b031602179055505b6001600160a01b03808516600090815260016020908152604080832093871683529290522080548061028257610282610a2b565b600082815260209020810160001990810180546001600160a01b031916905501905550505050565b6000546001600160a01b031633146102d45760405162461bcd60e51b8152600401610151906109b3565b6001600160a01b038085166000908152600160209081526040808320938716835292905290812054908383828161030d5761030d610a15565b9050602002013560016103209190610a41565b905060005b838110156105865784848281811061033f5761033f610a15565b9050602002013582116103945760405162461bcd60e51b815260206004820152601b60248201527f496e6469636573206d75737420626520736f72746564206465736300000000006044820152606401610151565b8484828181106103a6576103a6610a15565b905060200201356001846103ba91906109fe565b1115610491576001600160a01b038088166000908152600160208181526040808420948b168452939052919020906103f290856109fe565b8154811061040257610402610a15565b60009182526020808320909101546001600160a01b038a811684526001835260408085208b831686529093529190922091169086868481811061044757610447610a15565b905060200201358154811061045e5761045e610a15565b9060005260206000200160006101000a8154816001600160a01b0302191690836001600160a01b031602179055506104f5565b8484828181106104a3576104a3610a15565b905060200201356001846104b791906109fe565b10156104f55760405162461bcd60e51b815260206004820152600d60248201526c4f7574206f6620626f756e647360981b6044820152606401610151565b6001600160a01b038088166000908152600160209081526040808320938a1683529290522080548061052957610529610a2b565b600082815260209020810160001990810180546001600160a01b03191690550190556105566001846109fe565b925084848281811061056a5761056a610a15565b905060200201359150808061057e90610a59565b915050610325565b50505050505050565b6001600160a01b03808316600090815260016020908152604080832093851683529281529082902080548351818402810184019094528084526060939283018282801561060557602002820191906000526020600020905b81546001600160a01b031681526001909101906020018083116105e7575b5050505050905092915050565b6000546001600160a01b0316331461063c5760405162461bcd60e51b8152600401610151906109b3565b6106466000610744565b565b6000546001600160a01b031633146106725760405162461bcd60e51b8152600401610151906109b3565b6001600160a01b0380851660009081526001602090815260408083209387168352929052206106a2908383610794565b5050505050565b6000546001600160a01b031633146106d35760405162461bcd60e51b8152600401610151906109b3565b6001600160a01b0381166107385760405162461bcd60e51b815260206004820152602660248201527f4f776e61626c653a206e6577206f776e657220697320746865207a65726f206160448201526564647265737360d01b6064820152608401610151565b61074181610744565b50565b600080546001600160a01b038381166001600160a01b0319831681178455604051919092169283917f8be0079c531659141344cd1fd0a4f28419497f9722a3daafe3b4186f6b6457e09190a35050565b8280548282559060005260206000209081019282156107e7579160200282015b828111156107e75781546001600160a01b0319166001600160a01b038435161782556020909201916001909101906107b4565b506107f39291506107f7565b5090565b5b808211156107f357600081556001016107f8565b80356001600160a01b038116811461082357600080fd5b919050565b60008060006060848603121561083d57600080fd5b6108468461080c565b92506108546020850161080c565b9150604084013590509250925092565b60008083601f84011261087657600080fd5b50813567ffffffffffffffff81111561088e57600080fd5b6020830191508360208260051b85010111156108a957600080fd5b9250929050565b600080600080606085870312156108c657600080fd5b6108cf8561080c565b93506108dd6020860161080c565b9250604085013567ffffffffffffffff8111156108f957600080fd5b61090587828801610864565b95989497509550505050565b6000806040838503121561092457600080fd5b61092d8361080c565b915061093b6020840161080c565b90509250929050565b6020808252825182820181905260009190848201906040850190845b818110156109855783516001600160a01b031683529284019291840191600101610960565b50909695505050505050565b6000602082840312156109a357600080fd5b6109ac8261080c565b9392505050565b6020808252818101527f4f776e61626c653a2063616c6c6572206973206e6f7420746865206f776e6572604082015260600190565b634e487b7160e01b600052601160045260246000fd5b600082821015610a1057610a106109e8565b500390565b634e487b7160e01b600052603260045260246000fd5b634e487b7160e01b600052603160045260246000fd5b60008219821115610a5457610a546109e8565b500190565b6000600019821415610a6d57610a6d6109e8565b506001019056fea2646970667358221220b9fec9418ae171c6c67617b8ce1dd35d14e6141b658f20d2e75c9c9062b7533b64736f6c634300080c0033",
    "linkReferences": {}
  }
}