{
  "abi": [
    {
      "inputs": [
        {
          "internalType": "address[]",
          "name": "_target",
          "type": "address[]"
        },
        {
          "internalType": "address",
          "name": "_newElement",
          "type": "address"
        }
      ],
      "name": "append",
      "outputs": [
        {
          "internalType": "address[]",
          "name": "",
          "type": "address[]"
        }
      ],
      "stateMutability": "pure",
      "type": "function"
    },
    {
      "inputs": [
        {
          "internalType": "uint256[]",
          "name": "_target",
          "type": "uint256[]"
        },
        {
          "internalType": "uint256",
          "name": "_newElement",
          "type": "uint256"
        }
      ],
      "name": "append",
      "outputs": [
        {
          "internalType": "uint256[]",
          "name": "",
          "type": "uint256[]"
        }
      ],
      "stateMutability": "pure",
      "type": "function"
    }
  ],
  "bytecode": {
    "object": "0x61049261003a600b82828239805160001a60731461002d57634e487b7160e01b600052600060045260246000fd5b30600052607381538281f3fe73000000000000000000000000000000000000000030146080604052600436106100405760003560e01c8063b9dbe28b14610045578063da93796f1461006e575b600080fd5b610058610053366004610252565b61008e565b6040516100659190610301565b60405180910390f35b61008161007c36600461034e565b610161565b60405161006591906103e5565b606060005b835181101561011e5760006001600160a01b03168482815181106100b9576100b961041d565b60200260200101516001600160a01b0316141561010c57828482815181106100e3576100e361041d565b60200260200101906001600160a01b031690816001600160a01b0316815250508391505061015b565b8061011681610433565b915050610093565b5060405162461bcd60e51b815260206004820152600d60248201526c105c9c985e481a5cc8199d5b1b609a1b604482015260640160405180910390fd5b92915050565b606060005b835181101561011e5760008482815181106101835761018361041d565b602002602001015114156101b957828482815181106101a4576101a461041d565b6020026020010181815250508391505061015b565b806101c381610433565b915050610166565b634e487b7160e01b600052604160045260246000fd5b604051601f8201601f1916810167ffffffffffffffff8111828210171561020a5761020a6101cb565b604052919050565b600067ffffffffffffffff82111561022c5761022c6101cb565b5060051b60200190565b80356001600160a01b038116811461024d57600080fd5b919050565b6000806040838503121561026557600080fd5b823567ffffffffffffffff81111561027c57600080fd5b8301601f8101851361028d57600080fd5b803560206102a261029d83610212565b6101e1565b82815260059290921b830181019181810190888411156102c157600080fd5b938201935b838510156102e6576102d785610236565b825293820193908201906102c6565b95506102f59050868201610236565b93505050509250929050565b6020808252825182820181905260009190848201906040850190845b818110156103425783516001600160a01b03168352928401929184019160010161031d565b50909695505050505050565b6000806040838503121561036157600080fd5b823567ffffffffffffffff81111561037857600080fd5b8301601f8101851361038957600080fd5b8035602061039961029d83610212565b82815260059290921b830181019181810190888411156103b857600080fd5b938201935b838510156103d6578435825293820193908201906103bd565b98969091013596505050505050565b6020808252825182820181905260009190848201906040850190845b8181101561034257835183529284019291840191600101610401565b634e487b7160e01b600052603260045260246000fd5b600060001982141561045557634e487b7160e01b600052601160045260246000fd5b506001019056fea26469706673582212208e538cd0c117c4ffacf8b5d9d7cc4bd10b4f48691f711fcd77ea3461b6e3a8f964736f6c634300080c0033",
    "linkReferences": {}
  }
}